:1000000009C021C020C01FC01EC01DC01CC01BC015
:100010001AC01AC011241FBECFE9CDBF10E0A0E660
:10002000B0E0E0EDF0E003C0C89531960D92A03647
:10003000B107D1F710E0A0E6B0E001C01D92A036F4
:10004000B107E1F710C0DCCF1F920F920FB60F92ED
:1000500011248F9385B1809586BF8F910F900FBE2D
:100060000F901F901895CFE9D0E0DEBFCDBFA895C7
:1000700088E10FB6F89481BD11BC0FBE8CE188BB3E
:1000800083E087BB85B7877E85BF83EC8FBD81E02A
:1000900083BF81E287B988EE86B986B1866086B96A
:1000A00016BE20E030E0E0E3F5E78E2F9F2F0197AA
:1000B000F1F72F5F3F4F81E020393807B1F778948F
:1000C00085B7806285BF889585B78F7D85BFF8CF5E
:00000001FF
